:020000040800F2
:1000000000800020E90100083D2900083F29000880
:100010004129000843290008452900080000000084
:100020000000000000000000000000004729000858
:1000300049290008000000004B290008312D000864
:100040005902000859020008590200085902000824
:100050005902000859020008512A00085B2A0008CA
:10006000652A00086F2A0008792A00080D2A00086E
:1000700059020008590200085902000859020008F4
:100080005902000800000000E12900085902000898
:10009000590200085902000859020008832A000882
:1000A00059020008353300085902000859020008B7
:1000B00055330008753300089933000859020008C9
:1000C00059020008590200085902000859020008A4
:1000D00059020008E5370008F53700085902000802
:1000E000A52A000859020008590200085902000810
:1000F00059020008590200085902000800000000D7
:100100000000000059020008000000005902000829
:100110005902000800000000BD3300085902000821
:100120005902000859020008590200085902000843
:1001300059020008000000000000000059020008F9
:1001400059020008590200080000000000000000E9
:10015000000000000000000000000000000000009F
:10016000000000000000000000000000590200082C
:10017000590200080000000000000000000000001C
:10018000000000005902000800000000000000000C
:10019000000000000000000000000000000000005F
:1001A0000000000000000000590200085902000889
:1001B0005902000859020008590200080000000016
:1001C00000000000590200080000000000000000CC
:0801D000590200085902000861
:1001D8004FF0380100FB01F2013AFDD170470000F1
:1001E800144885464FF0000000F006FB02F0EAFBD9
:1001F80011481249124A002302E0D458C45004336B
:10020800C4188C42F9D30F4A0F4C002301E0136045
:100218000432A242FBD307F02DFE4FF05533ADF167
:10022800040C0A4A4CF804399445FBD101F08CFFC0
:10023800FEE700000080002000000020D40100201C
:10024800D8AD0008D4010020A0090020007C0020BF
:04025800FEE70000BD
:1008000070B5ADF5804D88B004468F4B9A6C42F4BC
:1008100080729A6401221A669A6D42F080529A653B
:100820008A4A5A608A4ADA608A4A1A608A4ADA60D0
:10083000854B1B6813F0007FFAD0884A136823F0B9
:100840000F0343F004031360A2F58052936823F072
:10085000F00343F080039360936843F003039360D5
:10086000794B9B6803F00C030C2BF9D1764B9A68FB
:1008700042F4E0629A609A6822F47C5242F4E062A8
:100880009A609A6822F0F0029A609A6822F4E06214
:100890009A609A6822F460529A60DA6C42F001021F
:1008A000DA64D3F8882022F00302C3F888204FF0DE
:1008B00090424FF4EE615162694911601A6E42F440
:1008C00080421A66A3F558431A6822F001021A60A2
:1008D0000C221A6000225A609A6040F27111D960AD
:1008E000DA625A6822F490425A609A6822F02A0228
:1008F0009A601A6842F001021A605A4800F06DFAD4
:10090000A8B90022584B1A6003F558431A669A6D2D
:1009100022F080529A65DA6C22F00102DA641A6ED3
:1009200022F480421A660DF5804D08B070BD00F0CB
:1009300086FA4E4A00210DF58040143000F092F9FD
:100940000128F0D10DF5804314331B78712BEAD1C7
:100950000DF5804315331B78072BE4D90DF5804343
:1009600016331A780DF58043173319780DF5804347
:1009700018331B781B0243EA01430DF580411931FE
:10098000097843EA01060DF580431A331B780DF50B
:1009900080411B310D782D0445EA03650DF5804338
:1009A0001C331B7845EA03250DF580431D331B7866
:1009B0001D43A242B7D0B5F5F03FB4D800F05EF8C1
:1009C000284600F089F8013E002E1BDBF0B200F053
:1009D0004EFA274A01A90DF58040143000F042F983
:1009E0000028F1D00DF5804314331B78742BEBD124
:1009F00006F5005001A9800300F0A4F80928E3D10E
:100A0000013EE1E700F04AF8174BDB6913F0400FB5
:100A1000FAD00D4B00221A669A6D22F080529A6528
:100A2000DA6C22F00102DA641A6E22F480421A664D
:100A3000BFF34F8F0F49CA6802F4E0620E4B1343B5
:100A4000CB60BFF34F8F6EE700100240000095406F
:100A500032550010000500033255001100200240FD
:100A6000FFFFEBAB801A060000380140005A62021B
:100A70000084D71700ED00E00400FA05054B5B6920
:100A8000002B00DB7047034B034A9A6002F1883267
:100A90009A60F7E70020024023016745024A536944
:100AA00043F000435361704700200240094B1B692B
:100AB00013F4803F07D113F0100F06D113F0EF0F9E
:100AC00005D1092070470120704705207047062096
:100AD000704700BF0020024038B5850B0135AD03DB
:100AE000ED0A0135022418E00D4B5A6922F4FC721C
:100AF00042EAC4025A615A6942F002025A615A69D2
:100B000042F480325A61FFF7D1FF0128FBD0044A3A
:100B1000536923F4FD7353610134AC42E4D938BD09
:100B20000020024000B583B0FFF7C0FF8DF807003A
:100B30009DF80730DBB2012BF6D09DF8070003B01B
:100B40005DF804FB2DE9F04707468846FFF7EAFF0A
:100B50000546B7F1006F04D0092D19D02846BDE82D
:100B6000F0872E4B5A6922F4FC725A615A6942F09E
:100B700002025A615A6942F480325A61FFF796FFC5
:100B80000128FBD0254A536923F4FD735361E3E741
:100B9000224B1B6813F4806F04D0204A136823F49F
:100BA000806313601D4A536943F00103536108F1E8
:100BB0000D09002402E0092D29D10134D8F80030B4
:100BC000B4EBD30F23D2E20007EBC406A6F108234F
:100BD000B3F5006FEFD359F8343047F83430BFF332
:100BE0006F8F02F1040A59F80A307360FFF79AFF19
:100BF000054657F8342059F834309A4206D17268C5
:100C000059F80A309A42D6D0062500E00625034A54
:100C1000536923F001035361A0E700BF00200240A5
:100C2000034BDB6913F0800FFAD0014B98627047D9
:100C3000003801408446002003E0094A0F21116278
:100C40006BB1074BDB6913F0200F04D0044A526AE2
:100C50008CF80020012013F00F03F1D0EDE770476E
:100C6000003801402DE9F04383B080460F4614461A
:100C7000002635460FE09DF80730012B06D11D46B2
:100C800004E09DF8073088F800300225631E002C30
:100C900000F09D801C460DF10700FFF7CBFF0028F8
:100CA000F4D0052D00F28B8001A353F825F000BF8E
:100CB000770C0008830C0008C90C0008DD0C000844
:100CC0004F0D0008AD0D00089DF8076088F8016021
:100CD000002E76D0082E76D80325D7E798F8012085
:100CE000931B43449DF807109970013E16F0FF06D0
:100CF000CCD198F80030742B01D00525C6E7082A1E
:100D000001D00525C2E7002F5FD098F802303B7371
:100D100098F8032098F804301B0243EA024398F83D
:100D2000052013433B6098F8062098F807301B0411
:100D300043EA026398F8082043EA022398F809205E
:100D400013437B600023BB60994604259EE79DF812
:100D5000070007EB0903587309F1010111F0030FB4
:100D600015D1BA6809F1FF333B445B7B1B0443EAAE
:100D70000063A9F102003844407B43EA0023A9F153
:100D80000309B94499F80D0003435A40BA603B681F
:100D90008B4201D0894679E77A68BB689A4202D0D3
:100DA0008946002572E7894605256FE79DF80750BB
:100DB000042D10D0012D3FF469AF002566E7002512
:100DC00064E7052562E7002560E705255EE700206A
:100DD00003B0BDE8F0830120FAE710B582B0044605
:100DE00002E0631E64B11C460DF10700FFF722FF0D
:100DF0000028F6D09DF80730B02BF2D1012000E09A
:100E0000002002B010BD38B505460120FFF708FFED
:100E10002878FFF705FF6878FFF702FF002405E058
:100E20002B199878FFF7FCFE0134E4B26B78A342EB
:100E300001D9072CF4D90420FFF7F2FE38BD00B524
:100E400085B070238DF8043004238DF8053000231D
:100E50008DF806308DF8073040228DF808208DF887
:100E6000093001A8FFF7CFFF05B05DF804FB00B51E
:100E700085B073238DF8043001238DF805308DF88B
:100E8000060001A8FFF7BFFF05B05DF804FB00BF37
:1010000010B5054C237833B9044B13B10448AFF342
:1010100000800123237010BDD401002000000000D7
:1010200050A1000808B5034B1BB103490348AFF3B7
:10103000008008BD00000000D801002050A1000879
:1010400081F0004102E000BF83F0004330B54FEA79
:1010500041044FEA430594EA050F08BF90EA020FE6
:101060001FBF54EA000C55EA020C7FEA645C7FEA79
:10107000655C00F0E2804FEA5454D4EB5555B8BF9C
:101080006D420CDD2C4480EA020281EA030382EA0D
:10109000000083EA010180EA020281EA0303362D9F
:1010A00088BF30BD11F0004F4FEA01314FF4801C72
:1010B0004CEA113102D0404261EB410113F0004F84
:1010C0004FEA03334CEA133302D0524263EB43033B
:1010D00094EA050F00F0A780A4F10104D5F1200ED9
:1010E0000DDB02FA0EFC22FA05F2801841F1000134
:1010F00003FA0EF2801843FA05F359410EE0A5F108
:1011000020050EF1200E012A03FA0EFC28BF4CF038
:10111000020C43FA05F3C01851EBE37101F00045EE
:1011200007D54FF0000EDCF1000C7EEB00006EEBFB
:101130000101B1F5801F1BD3B1F5001F0CD3490885
:101140005FEA30004FEA3C0C04F101044FEA4452DC
:1011500012F5800F80F09A80BCF1004F08BF5FEA63
:10116000500C50F1000041EB045141EA050130BD43
:101170005FEA4C0C404141EB0101013C28BFB1F555
:10118000801FE9D291F0000F04BF01460020B1FAA0
:1011900081F308BF2033A3F10B03B3F120020CDA73
:1011A0000C3208DD02F1140CC2F10C0201FA0CF051
:1011B00021FA02F10CE002F11402D8BFC2F1200CB6
:1011C00001FA02F120FA0CFCDCBF41EA0C0190406C
:1011D000E41AA2BF01EB0451294330BD6FEA0404B5
:1011E0001F3C1CDA0C340EDC04F11404C4F12002A0
:1011F00020FA04F001FA02F340EA030021FA04F3B2
:1012000045EA030130BDC4F10C04C4F1200220FA08
:1012100002F001FA04F340EA0300294630BD21FA46
:1012200004F0294630BD94F0000F83F4801306BF0C
:1012300081F480110134013D4EE77FEA645C18BF00
:101240007FEA655C29D094EA050F08BF90EA020F97
:1012500005D054EA000C04BF1946104630BD91EA8F
:10126000030F1EBF0021002030BD5FEA545C05D192
:101270004000494128BF41F0004130BD14F58004D1
:101280003CBF01F5801130BD01F0004545F0FE4145
:1012900041F470014FF0000030BD7FEA645C1ABF7A
:1012A000194610467FEA655C1CBF0B46024650EAB1
:1012B000013406BF52EA033591EA030F41F40021DD
:1012C00030BD00BF90F0000F04BF0021704730B563
:1012D0004FF4806404F132044FF000054FF0000138
:1012E00050E700BF90F0000F04BF0021704730B5F9
:1012F0004FF4806404F1320410F0004548BF4042CE
:101300004FF000013EE700BF42004FEAE2014FEA22
:1013100031014FEA02701FBF12F07F4393F07F4FFD
:1013200081F06051704732F07F4208BF704793F000
:101330007F4F04BF41F40021704730B54FF4607413
:1013400001F0004521F000411CE700BF50EA010216
:1013500008BF704730B54FF000050AE050EA0102BF
:1013600008BF704730B511F0004502D5404261EB2F
:1013700041014FF4806404F132045FEA915C3FF470
:10138000D8AE4FF003025FEADC0C18BF03325FEA0D
:10139000DC0C18BF033202EBDC02C2F1200300FABE
:1013A00003FC20FA02F001FA03FE40EA0E0021FAE3
:1013B00002F11444BDE600BF70B54FF0FF0C4CF4D1
:1013C000E06C1CEA11541DBF1CEA135594EA0C0F83
:1013D00095EA0C0F00F0DEF82C4481EA030621EABE
:1013E0004C5123EA4C5350EA013518BF52EA0335F9
:1013F00041F4801143F4801338D0A0FB02CE4FF0AB
:101400000005E1FB02E506F00042E0FB03E54FF0DA
:101410000006E1FB03569CF0000F18BF4EF0010ED2
:10142000A4F1FF04B6F5007F64F5407404D25FEACE
:101430004E0E6D4146EB060642EAC62141EA555181
:101440004FEAC52040EA5E504FEACE2EB4F1FD0CC3
:1014500088BFBCF5E06F1ED8BEF1004F08BF5FEA41
:10146000500E50F1000041EB045170BD06F00046F3
:1014700046EA010140EA020081EA0301B4EB5C04A0
:10148000C2BFD4EB0C0541EA045170BD41F4801198
:101490004FF0000E013C00F3AB8014F1360FDEBFBD
:1014A000002001F0004170BDC4F10004203C35DA99
:1014B0000C341BDC04F11404C4F1200500FA05F31C
:1014C00020FA04F001FA05F240EA020001F00042BD
:1014D00021F0004110EBD37021FA04F642EB060133
:1014E0005EEA430E08BF20EAD37070BDC4F10C045D
:1014F000C4F1200500FA04F320FA05F001FA04F221
:1015000040EA020001F0004110EBD37041F100010C
:101510005EEA430E08BF20EAD37070BDC4F1200517
:1015200000FA05F24EEA020E20FA04F301FA05F27F
:1015300043EA020321FA04F001F0004121FA04F227
:1015400020EA020000EBD3705EEA430E08BF20EAF7
:10155000D37070BD94F0000F0FD101F00046400031
:1015600041EB010111F4801F08BF013CF7D041EAB3
:10157000060195F0000F18BF704703F000465200B7
:1015800043EB030313F4801F08BF013DF7D043EA88
:101590000603704794EA0C0F0CEA135518BF95EA3E
:1015A0000C0F0CD050EA410618BF52EA4306D1D1C5
:1015B00081EA030101F000414FF0000070BD50EAE4
:1015C000410606BF1046194652EA430619D094EA6E
:1015D0000C0F02D150EA013613D195EA0C0F05D158
:1015E00052EA03361CBF104619460AD181EA0301AC
:1015F00001F0004141F0FE4141F470014FF0000064
:1016000070BD41F0FE4141F4780170BD70B54FF0FE
:10161000FF0C4CF4E06C1CEA11541DBF1CEA13557E
:1016200094EA0C0F95EA0C0F00F0A7F8A4EB050460
:1016300081EA030E52EA03354FEA013100F0888057
:101640004FEA03334FF0805545EA131343EA126320
:101650004FEA022245EA111545EA10654FEA0026D5
:101660000EF000419D4208BF964244F1FD0404F58E
:10167000407402D25B084FEA3202B61A65EB0305EA
:101680005B084FEA32024FF480104FF4002CB6EBA7
:10169000020E75EB030E22BFB61A754640EA0C0027
:1016A0005B084FEA3202B6EB020E75EB030E22BF67
:1016B000B61A754640EA5C005B084FEA3202B6EBA8
:1016C000020E75EB030E22BFB61A754640EA9C0067
:1016D0005B084FEA3202B6EB020E75EB030E22BF37
:1016E000B61A754640EADC0055EA060E18D04FEAF5
:1016F000051545EA16754FEA06164FEAC30343EA95
:1017000052734FEAC2025FEA1C1CC0D111F4801F61
:101710000BD141EA00014FF000004FF0004CB6E75A
:1017200011F4801F04BF01430020B4F1FD0C88BFF9
:10173000BCF5E06F3FF6AFAEB5EB030C04BFB6EB04
:10174000020C5FEA500C50F1000041EB045170BDF7
:101750000EF0004E4EEA113114EB5C04C2BFD4EB24
:101760000C0541EA045170BD41F480114FF0000EA8
:10177000013C90E645EA060E8DE60CEA135594EA24
:101780000C0F08BF95EA0C0F3FF43BAF94EA0C0F27
:101790000AD150EA01347FF434AF95EA0C0F7FF49C
:1017A00025AF104619462CE795EA0C0F06D152EAF0
:1017B00003353FF4FDAE1046194622E750EA4106D4
:1017C00018BF52EA43067FF4C5AE50EA41047FF4E5
:1017D0000DAF52EA43057FF4EBAE12E74FF0FF3C4A
:1017E00006E000BF4FF0010C02E000BF4FF0010C1B
:1017F0004DF804CD4FEA410C7FEA6C5C4FEA430C94
:1018000018BF7FEA6C5C1BD001B050EA410C0CBFE2
:1018100052EA430C91EA030F02BF90EA020F002044
:10182000704710F1000F91EA030F58BF994208BFAB
:1018300090422CBFD8176FEAE37040F00100704768
:101840004FEA410C7FEA6C5C02D150EA013C07D1BF
:101850004FEA430C7FEA6C5CD6D152EA033CD3D00A
:101860005DF8040B704700BF8446104662468C4604
:101870001946634600E000BF01B5FFF7B7FF002837
:1018800048BF10F1000F01BD4DF808EDFFF7F4FF60
:101890000CBF012000205DF808FB00BF4DF808EDEB
:1018A000FFF7EAFF34BF012000205DF808FB00BF0E
:1018B0004DF808EDFFF7E0FF94BF012000205DF830
:1018C00008FB00BF4DF808EDFFF7CEFF94BF0120E5
:1018D00000205DF808FB00BF4DF808EDFFF7C4FFDE
:1018E00034BF012000205DF808FB00BF4A0011D280
:1018F00012F5001211D20DD56FF47873B3EB62526A
:101900000ED44FEAC12343F0004343EA505323FA75
:1019100002F070474FF00000704750EA013002D1EA
:101920004FF0FF3070474FF0000070474FEA410220
:10193000B2F1E04324BFB3F5001CDCF1FE5C0DD92D
:1019400001F0004C4FEAC0024CEA5070B2F1004F77
:1019500040EB830008BF20F00100704711F0804F7A
:1019600021D113F13872BCBF01F00040704741F43F
:1019700080114FEA5252C2F11802C2F1200C10FA43
:101980000CF320FA02F018BF40F001004FEAC12327
:101990004FEAD32303FA0CFC40EA0C0023FA02F3CB
:1019A0004FEA4303CCE77FEA625307D150EA0133A1
:1019B0001EBF4FF0FE4040F44000704701F0004071
:1019C00040F0FE4040F40000704700BF7BB972B9A0
:1019D0000029BEBF00204FF0004106E008BF0028EC
:1019E0001CBF6FF000414FF0FF3000F0D3B9ADF1F4
:1019F000080C6DE904CE002909DB002B1ADB00F08E
:101A00004DF8DDF804E0DDE9022304B07047404200
:101A100061EB4101002B1BDB00F040F8DDF804E036
:101A2000DDE9022304B0404261EB4101524263EB25
:101A300043037047524263EB430300F02FF8DDF895
:101A400004E0DDE9022304B0404261EB410170474C
:101A5000524263EB430300F021F8DDF804E0DDE9D6
:101A6000022304B0524263EB4303704753B94AB9AF
:101A7000002908BF00281CBF4FF0FF314FF0FF3096
:101A800000F088B9ADF1080C6DE904CE00F006F85D
:101A9000DDF804E0DDE9022304B070472DE9F047EA
:101AA000089D8E4604468846002B4AD18A42174636
:101AB00062D9B2FA82F64EB1C6F1200301FA06F8F5
:101AC00020FA03F3B74043EA0808B4404FEA174E40
:101AD0001FFA87FCB8FBFEF1230C0EFB118843EACA
:101AE000084301FB0CF29A4209D9FB1801F1FF30BF
:101AF00080F0EA809A4240F2E78002393B449A1A29
:101B0000A3B2B2FBFEF00EFB102243EA024300FB3D
:101B10000CFC9C4509D9FB1800F1FF3280F0D680FF
:101B20009C4540F2D3803B44023840EA0140A3EB9D
:101B30000C0300211DB1F3400022C5E90032BDE8CD
:101B4000F0878B4205D90DB1C5E900010021084697
:101B5000F5E7B3FA83F1002946D1734502D38242F7
:101B600000F20581841A6EEB030201209046002DDD
:101B7000E5D0C5E90048E2E7002A00F09080B2FA1B
:101B800082F6002E40F0A4808A1A030C4FEA174E0A
:101B900080B2BCB20121B2FBFEFC0EFB1C2243EA68
:101BA000024304FB0CF29A4207D9FB180CF1FF38F0
:101BB00002D29A4200F2E080C4469B1AB3FBFEF2C6
:101BC0000EFB123340EA034302FB04F49C4207D9A4
:101BD000FB1802F1FF3002D29C4200F2CA8002469A
:101BE0001B1B42EA0C40A5E7C1F120068B4022FAFC
:101BF00006F71F430EFA01F420FA06F32EFA06FE4A
:101C00004FEA1749234300FA01F81FFA87FCBEFB8D
:101C1000F9F01C0C09FB10EE44EA0E4400FB0CFE2C
:101C2000A64502FA01F209D93C1900F1FF3A80F009
:101C30009C80A64540F2998002383C44A4EB0E04F7
:101C40001FFA83FEB4FBF9F309FB13444EEA044484
:101C500003FB0CFCA44508D93C1903F1FF3E80F0BE
:101C60008280A4457FD9023B3C4443EA0040A4EB78
:101C70000C04A0FB02EC64457346E14662D35FD0DE
:101C80005DB1B8EB030264EB090404FA06F622FA2C
:101C900001F31E43CC40C5E9006400214FE7B1FBCE
:101CA000F2FC010C41EA0E4180B240EA01423B469F
:101CB00038463C46B846BE462026B1FBF7F1A2EBBB
:101CC000080241EA0C4166E7014618E710462CE796
:101CD000C6F120022EFA02F3B740B14020FA02F218
:101CE0004FEA174E0A43B3FBFEF8BCB20EFB1833A3
:101CF000110C41EA034108FB04F9B04089454FEA61
:101D0000104380B23ED9791808F1FF3C01D28945D1
:101D10001FD8A1EB0901B1FBFEF909FB04F80EFB8A
:101D2000191192B242EA0142424529D2BA1809F188
:101D3000FF31C4D24245C2D2A9F102013A44BEE702
:101D4000F0459DD2BEEB02036CEB070C0138E14677
:101D500096E7A7EB09094944A8F1020CB1FBFEF98B
:101D600009FB04F8DBE773467FE7504666E7084661
:101D7000FDE63B44023A33E7ACF1020C3B441CE77E
:101D800049469CE7A1EB0901C446B1FBFEF909FBFA
:101D900004F8C4E7704700BF000000000000000026
:101DA00001F0FF01102A2BDB10F0070F08D010F80C
:101DB000013B013A8B422DD010F0070F42B3F6D110
:101DC000F0B441EA012141EA014122F007047FF029
:101DD00000070023F0E80256083C85EA010586EA80
:101DE000010685FA47F5A3FA87F586FA47F6A5FABC
:101DF00087F68EB9EED1F0BC01F0FF0102F00702C8
:101E000032B110F8013B013A83EA010313B1F8D172
:101E10000020704701387047002D06BF3546033853
:101E2000073815F0010F07D1013015F4807F02BF8C
:101E3000013015F4C03F0130F0BC0138704700BFDD
:101E400038B50022002304460D46FFF727FD28B9C8
:101E500020462946BDE8384000F00AB8204605F182
:101E6000004100F005F8404261EB410138BD00BF80
:101E7000D0B50C4B002206460F46FFF79DFAFFF740
:101E800035FD0446FFF71EFA074B0022FFF794FAD0
:101E900002460B4630463946FFF7D6F8FFF726FDD7
:101EA0002146D0BD0000F03D0000F04170EE207AE8
:101EB000C0ED007A30EE600A81ED000A7047000044
:101EC00030B52DED028B85B000F0DEFA9FED228A51
:101ED000102402940025019502230093F0EE480A95
:101EE000B1EE040A40234FF0904221461B4800F017
:101EF0008FFC1B4B18700294019501230093F0EEA8
:101F0000480AB1EE040A4FF480634FF090424FF458
:101F10000071104600F07CFC124B18700294019581
:101F200003230093F0EE480AB1EE040A4FF4805305
:101F30004FF090424FF40061104600F069FC0A4BEC
:101F400018700A4805F090FD2146094805F024FD67
:101F500005B0BDEC028B30BD9A99993F0004004852
:101F6000F2010020F1010020F001002068A100082A
:101F7000A0A1000830B52DED048B83B010EE105AEF
:101F800010EE904AB0EE418AB0EE619A694601A81F
:101F9000FFF78CFFDFED137AC9EE278AF0EE680AAF
:101FA0009DED010A104B93F9000000F0DDFBF0EE0F
:101FB000680A9DED000A0D4B93F9000000F0D4FB78
:101FC000F0EE680AB0EE480A094B93F9000000F001
:101FD000CBFB084B1D605C6083ED028A03B0BDEC57
:101FE000048B30BD00007042F2010020F10100209E
:101FF000F0010020F401002008B50A4B93F900001D
:1020000000F0E2FB084B93F9000000F0DDFB074B0A
:1020100093F9000000F0D8FB054B00221A605A60CB
:102020009A6008BDF0010020F1010020F2010020BB
:10203000F40100202DE9F04186B001685A294CD006
:102040001DDC012907DD1C294BD1FFF7D5FF2748EF
:1020500005F00AFD3EE0002943DB254B1C685E6865
:102060009F68037D03B14468437D03B18668837D27
:1020700003B1C768C37D43B1D0F8108007E05B2986
:102080002FD11C4805F0F0FC24E0DFF8788001EE49
:10209000908A01EE107A00EE906A00EE104AFFF787
:1020A00069FF2046FFF730F904460D464046FFF72A
:1020B0002BF9CDE904013846FFF726F9CDE90201F5
:1020C0003046FFF721F9CDE9000122462B460A48A8
:1020D00005F062FC06B0BDE8F081084805F0C4FCDC
:1020E000F8E7074805F058FCF4E700BFE4A1000852
:1020F000F401002010A20008BCA10008F4A100080F
:1021000038A200080000FA4308B5FFF793FF08BDA6
:1021100008B5024610214FF0904001F053FF08BD72
:1021200070B5074D2B68074C0026E654214606483B
:1021300005F032FC0549204600F014F92E6070BD10
:10214000000200200402002050A20008092100081B
:1021500010B582B004F084FB00F07CFD00F0B6FC0A
:102160004FF4E131012001F035FA01221146104609
:1021700000F004FD002301930222009201221021AD
:102180004FF0904000F0D6FCFFF79AFE254805F08E
:102190006BFC254805F068FC0FE00A21012001F0E6
:1021A000E3F9224B1B68002B01DDFFF7B9FF0A2082
:1021B00004F078FB0020FFF7ABFF012001F080F96D
:1021C0000028FAD0012001F08FF9044601460120D1
:1021D00001F0CAF90120FFF79BFF0A2CDDD00D2C7E
:1021E000DBD0082C0DD0114B1B687E2BDFDC1F2CA5
:1021F000DDD97E2CDBD8591C0C4A11600C4AD45412
:10220000D5E70A4B1B68002BEDDD013B074A136045
:102210002021012001F0A8F90821012001F0A4F9F2
:10222000C5E700BF68A2000884A2000800020020E1
:102230000402002070B588B004460D4600230B60F0
:102240004B608B60CB600B614B614FF0FF330B60D9
:1022500000E001342378002B7FD0414AD25C12F099
:10226000080FF6D1282B78D03B2B76D0013402F022
:102270000302022A0CD0DEB2394B9B5D13F0030F30
:10228000E8D020220021684605F082FD002209E006
:10229000203BF0E7013402F120010DEB010000F8D2
:1022A000203C0132237843B12D48C05C10F0040F6C
:1022B000F0D12E2BEED02D2BECD0002ACAD06846C0
:1022C00004F022FB51EC100BFFF730FB07EE900AF5
:1022D000463E142EBED801A353F826F0532300081F
:1022E0003123000855220008552200085522000815
:1022F00055220008552200085522000855220008E2
:1023000055220008552200085522000855220008D1
:1023100055220008552200085522000855220008C1
:10232000552200083B230008432300084B230008E4
:10233000FDEEE77AC5ED007A8CE7686001232B7526
:1023400088E7A86001236B7584E7E8600123AB751B
:1023500080E728610123EB757CE708B070BD00BF02
:10236000F9A7000830B5C7B004460D46002204E0C6
:1023700006AB0020985462B901342378A3B10A2B2C
:10238000F6D00D2BF4D0FE2AF6D806A98B540132D4
:10239000F2E769461846FFF74DFF009B002B01DB73
:1023A0006846A8470022E7E70AB947B030BD06A84B
:1023B00083546946FFF73EFF009B002BF5DB684620
:1023C000A847F2E708B50146032807DC00EBC00286
:1023D000054B03EB8203187F00B108BD034805F0ED
:1023E000DBFA0020F9E700BF94020020C0A2000839
:1023F00038B50B4B1B5C8B4200D138BD04460D46F3
:1024000000EBC002074B03EB82030A4699899868E8
:1024100001F0D8FD024B1D55012004F043FAECE712
:102420002403002094020020144B03EB8003D3ED1F
:10243000007A37EEC07AB0EEC77ADFED116A67EE48
:10244000A67AB4EEE77AF1EE10FA00DC704710B528
:102450002DED028B0446B0EE408A00EBC002094B22
:1024600003EB8203987B00F0BBFF044B03EB840378
:1024700083ED008ABDEC028B10BD00BF84020020FA
:102480000AD7233C9402002008B5002307E003EBA1
:10249000C3029100054A0A44002111770133032B3E
:1024A000F5DD034805F0E0FA08BD00BF9402002006
:1024B000ECA200080000000008B510EE100AFEF7BC
:1024C00023FF0BA3D3E90023FEF776FFFFF72EFAD5
:1024D00000EE100A07F00EF9F7EE007A77EEC07AF8
:1024E000B6EE000A27EE800A08BD00BFAFF30080F9
:1024F000182D4454FB21094010B50446FFF762FF34
:1025000000B910BD044B04EBC40203EB8202118A34
:10251000907B00F0ABFFF4E7940200202DE9F04738
:102520002DED048B82B005460C46F0EE409A10EE7D
:10253000100AFEF7E9FE80468946CDE90089224669
:1025400029467D4805F028FA2846FFF73BFF20B9C9
:1025500002B0BDEC048BBDE8F08705EBC502774BFC
:1025600003EB820393F81DA007EE90AAB8EEE78A6A
:10257000DFED737A28EE278A18EE100AFEF7C4FE04
:1025800006460F4602460B4651466E4805F004FAD1
:10259000F4EEC89AF1EE10FA3BDCDFED6B7AF4EE64
:1025A000E79AF1EE10FA3ED4E143C90F84EAE476EB
:1025B000A6EBE47605EBC502604B03EB82039B6957
:1025C000002C40DB32465D4F05EBC50807EB880861
:1025D0001344C8F818302846FFF70AFF19EE900A8E
:1025E000FEF792FECDE9000132462946574805F034
:1025F000D3F90024009423461422B8F8101098F858
:102600000E0000F027FD9FED500A2846FFF70CFF53
:1026100030E0CDE9006742464B464D4805F0BCF935
:10262000F0EE489AB9E719EE900AFEF76DFE024601
:102630000B4600204749CDE90001474805F0ACF9B9
:10264000DFED419AB0E77242BDE70A2004F02AF9B3
:102650009FED3D9A39EEC98A9FED400A88EE800AC7
:10266000FFF72AFF28EE000A30EE090A2846FFF796
:10267000DBFE0A3407EE904AF8EEE78ADFED377AA0
:10268000F4EEE78AF1EE10FADFD429EEA77ADFED57
:10269000346AC7EE267AFDEEE77A17EE903AA6EB9B
:1026A0004306002E02DC4FF4967427E007EE906A92
:1026B000F8EEE77A67EEA67A87EEA97AFCEEC77A9B
:1026C00017EE900A04F0EEF8EDE70A2004F0EAF8BD
:1026D00007EE904AB8EEE70ADFED1B8A39EEE88A8A
:1026E000DFED1E7A80EE270AFFF7E6FE28EE000AED
:1026F00030EE280A2846FFF797FE0A3C002CE4DC5F
:10270000002E06DC2846FFF7F7FE164805F0ACF968
:102710001EE707EE906AF8EEE77A9FED117A67EE12
:10272000877ADFED096A87EEA67AFCEEC77A17EEA4
:10273000900A04F0B7F8E5E710A30008940200201F
:102740000000484450A300080000C842D8A3000875
:102750008CA3000800005940B0A300080000964375
:1027600000007A4408A4000810B52DED028B044641
:10277000B0EE408AF0EE608AFFF724FE10B9BDEC9F
:10278000028B10BD0F4B04EBC40203EB8202D2EDAF
:10279000067AF8EEE77A04EBC40203EB820393EDCA
:1027A000050A87EE807A38EE478A20EE088A20EE06
:1027B000280AFDEEC87A17EE901A2046FFF7AEFE03
:1027C000DDE700BF9402002010B50446FFF7FAFDD4
:1027D00030B104EBC404034B03EB840300229A6181
:1027E00010BD00BF9402002004280CD8DFE800F0E0
:1027F000030D0507090004207047022070470220DE
:102800007047022070470220704701207047000087
:102810002DE9F04F2DED028B85B003900F46164643
:102820001D469DF84080B0EE408A9DF84890F0EE3D
:10283000608A0024032C6BDC04EBC4023A4B03EBEC
:1028400082031B7F13B1013464B2F3E74046FFF704
:10285000CBFF01904FF0020BCDF800B000235A4699
:102860003946039800F066F94FF0000ACDF804A04D
:10287000CDF800B0534601222946304600F05AF9FF
:1028800001224FF47A71404600F09AFA264A04EB8E
:10289000C40102EB8103039842F821009F809E60EF
:1028A0009D8183F80E80119A1A6183ED058AC3F821
:1028B00018A04FF0010883F81C8083F81D90C3ED29
:1028C000088A2146194805F067F82B463A46214602
:1028D000174805F061F8BDEEC88A18EE900AFEF7B9
:1028E00013FDCDE900014B4618EE102A2146114890
:1028F00005F052F842462946304601F063FB642059
:1029000003F0D0FF52462946304601F05BFB04E05D
:10291000094805F0A9F84FF0FF34204605B0BDEC9A
:10292000028BBDE8F08F00BF9402002024A40008B1
:102930003CA400087CA40008C0A40008FEE7FEE751
:10294000FEE7FEE7FEE770477047704701207047DB
:1029500008B505F08DFA162303604FF0FF3008BD6F
:1029600008B54FF0FF31FFF7F3FFFEE74FF0FF3000
:1029700070474FF400534B600020704701207047B0
:102980000020704710B503460C4A0D490D480068F9
:1029900040B10C4800680344521A934206D8094AD1
:1029A000136010BD0748084C0460F2E705F060FAB8
:1029B0000C2303604FF0FF30F3E700BF00800020DE
:1029C0000004000028030020A0090020034AD2F8D8
:1029D000883043F47003C2F88830704700ED00E09F
:1029E00008B5024800F062FF08BD00BF9403002054
:1029F00008B5044B01221A70034B1B6803B19847BA
:102A000008BD00BF2C0300203003002008B5024899
:102A100001F08BF908BD00BF3403002008B5012385
:102A200083409BB2074A52691A420AD0054A536151
:102A3000054A1288134204D0044B53F8203003B1E6
:102A4000984708BD00040140000400200404002051
:102A500008B50020FFF7E2FF08BD08B50120FFF729
:102A6000DDFF08BD08B50220FFF7D8FF08BD08B597
:102A70000320FFF7D3FF08BD08B50420FFF7CEFF02
:102A800008BD08B50520FFF7C9FF0620FFF7C6FF00
:102A90000720FFF7C3FF0820FFF7C0FF0920FFF75B
:102AA000BDFF08BD08B50A20FFF7B8FF0B20FFF7F0
:102AB000B5FF0C20FFF7B2FF0D20FFF7AFFF0E2090
:102AC000FFF7ACFF0F20FFF7A9FF08BD00B585B0E9
:102AD000164BDA6C42F02002DA64DA6C02F0200263
:102AE0000092009ADA6C42F04002DA64DA6C02F08A
:102AF00040020192019ADA6C42F00102DA64DA6C67
:102B000002F001020292029ADA6C42F00202DA64E6
:102B1000DB6C03F002030393039B01F0DFFA044B29
:102B200001221A7005B05DF804FB00BF00100240DE
:102B3000440400202DE9F04186B00546884617463A
:102B40001E460024019402940394049405940A4BB5
:102B50001B7873B1CDF80480029703960C9B049305
:102B60000D9B059301A9284601F042F906B0BDE886
:102B7000F081FFF7ABFFEDE74404002010B4064BF3
:102B8000064C1C60064B1870064B1970064B1A70E9
:102B90005DF8044B704700BF48040020E0E5E0E525
:102BA0004C0400204E0400204D040020F8B5C0B9AC
:102BB0000C461746054606460FE00D4B187800F008
:102BC0007FFC0028F9D00A4B187800F08DFC2146D4
:102BD00001F8010B013601350C46BD42EDDB3046F4
:102BE000F8BD05F045F9092303604FF0FF36F6E71D
:102BF0004C04002070B51546012815D0022821D0BC
:102C000005F036F9092303604FF0FF350AE00C4662
:102C100014F8011B0C4B187800F0A6FC0136214675
:102C2000AE42F4DB284670BD0026F9E70C4614F8E6
:102C3000011B064B187800F097FC01362146AE4286
:102C4000F4DBEFE70026FAE74E0400204D040020F5
:102C500072B6FEE700B595B03822002106A805F04F
:102C600097F800200190029003900490059001F0E5
:102C7000AFF9022306934FF48072099240220A9220
:102C80000D930E9304220F925522109211931293DA
:102C9000139306A801F0C8FB80B90F230193032307
:102CA0000293002303930493059304210DEB010089
:102CB00001F070FE20B915B05DF804FBFFF7C8FF06
:102CC000FFF7C6FF00B583B00B4B1A6E42F001024E
:102CD0001A661A6E02F001020092009A9A6D42F092
:102CE00080529A659B6D03F080530193019BFFF71F
:102CF000B1FF03B05DF804FB0010024008B50023EB
:102D000005E0094A002142F823100133DBB20F2B02
:102D1000F7D9002211464FF0FF3000F069FF034B56
:102D200001221A7008BD00BF500400204F0400208B
:102D300010B503F0A5FD0A4B1B780BB1002405E08C
:102D4000FFF7DCFFFAE798470134E4B20F2C05D80F
:102D5000044B53F82430002BF5D1F5E710BD00BF2C
:102D60004F04002050040020042824D8DFE800F09D
:102D700003090F161D00104B1B686FF001021A614A
:102D800070470D4BDB6C6FF001021A6170470A4B04
:102D9000D3F898306FF001021A617047064BD3F8F0
:102DA000E4306FF001021A617047034BD3F8303101
:102DB0006FF001021A6170479004002000000000CB
:102DC0002DE9F04186B004468846154604280ED801
:102DD000DFE800F0035C67727D006D4B1A6E42F411
:102DE00000621A661B6E03F400630193019B694B3A
:102DF00053F824104C2304FB03F3674AD150002CF2
:102E000070D101F0DBFE0246614B9B6813F4605FFA
:102E100000D0420000235CA1D1E90001FEF7D6FDFD
:102E200006460F464FEAD8624FEA4813B3EB080351
:102E300062F10002520242EAD3525B0213EB080332
:102E400042F10002910141EA93619801C01A61EBDD
:102E5000020110EB080032463B4641F10001FEF74B
:102E600005FE03468C46012C46D04FF6FF72002625
:102E70001746824276EB01016FD3474B4C2202FB8F
:102E8000043300225A600138D8604AE0404B9A6D02
:102E900042F001029A659B6D03F001030293029BCD
:102EA000A5E73B4B9A6D42F002029A659B6D03F0D9
:102EB00002030393039B9AE7354B9A6D42F0040299
:102EC0009A659B6D03F004030493049B8FE7304BDA
:102ED0009A6D42F010029A659B6D03F01003059302
:102EE000059B84E701F058FE0246294B9B6813F4CA
:102EF000E06F8FD042008DE74FF0FF32B7E752000E
:102F00005B0843EACC734FEA5C0C9F4276EB0C0102
:102F1000F5D3013A20494C2000FB04114A60013BE3
:102F2000CB601D4E4C2303FB046600233361B3606A
:102F3000304602F0CDF890B9A5B9304602F020F83D
:102F4000F0B94C2303FB04F4134B1A59136843F0F4
:102F50000103136006B0BDE8F0810122D5E7FFF759
:102F600077FEE9E72046FFF7FFFE0C4B1D570122D5
:102F70000421284600F03CFE284600F049FEDCE72C
:102F8000FFF766FEDDE700BF0010A5D4E8000000F3
:102F900000100240A8A5000890040020A0A5000889
:102FA0004C22024B02FB0030704700BF900400200F
:102FB000B2F57A7F28BF4FF47A72244B4FF04C0C55
:102FC0000CFB0033DB6803FB0222214BA3FB023224
:102FD0009209102932D8DFE801F00931313111317D
:102FE0003131193131312131313129004C2300FB8C
:102FF00003F31649CB5892B25A6370474C2300FB37
:1030000003F31249CB5892B29A6370474C2300FBEA
:1030100003F30E49CB5892B2DA6370474C2300FB9E
:1030200003F30A49CB5892B21A6470474C2300FB51
:1030300003F30649CB5892B29A6470474C2303FBC2
:1030400000F0024B1B5892B2DA64704790040020E3
:10305000D34D62102DE9F0418AB005460C46174663
:103060009DF84080032800F20581DFE810F004009D
:103070007300BC00F400B8F1000F2FD0042913D066
:10308000082921D0002940F0F5805BB14FF40061A0
:10309000062301930222009200234FF09040FFF795
:1030A00049FDE7E08021F3E74BB19C48012106236D
:1030B0000193022200920023FFF73CFDDAE04FF07B
:1030C00090404FF48051F2E70623019302220092D0
:1030D000002301219248FFF72DFDCBE00C2900F2DF
:1030E000C980DFE801F007C7C7C713C7C7C71FC735
:1030F000C7C72B00062301930222009200234FF43E
:1031000080714FF09040FFF715FDB3E00623019367
:103110000222009200234FF400714FF09040FFF71D
:1031200009FDA7E0062301930222009200234FF439
:1031300080614FF09040FFF7FDFC9BE00B23019373
:103140000222009200234FF400614FF09040FFF7FD
:10315000F1FC8FE00C2900F28D80DFE801F0078B95
:103160008B8B158B8B8B248B8B8B340053B1202155
:10317000012301930222009200234FF09040FFF7B9
:10318000D9FC77E00121F3E74BB164480821012322
:103190000193022200920023FFF7CCFC6AE04FF07B
:1031A00090400221F3E75BB14FF400710A230193D1
:1031B0000222009200234FF09040FFF7BBFC59E041
:1031C00004210123F3E75BB14FF480610A230193EB
:1031D0000222009200234FF09040FFF7ABFC49E041
:1031E00008210123F3E70C2944D8DFE801F0074365
:1031F000434315434343224343432B0043B14748D2
:1032000010210222019200920023FFF793FC31E08B
:103210004FF090404021F4E74BB18021022201920F
:10322000009200234FF09040FFF784FC22E0102131
:10323000F4E7022201920092002301213748FFF7B0
:1032400079FC17E00222019200920023802133488A
:10325000FFF770FC0EE0042937D0082946D049B9A1
:103260006BB340212D4802230193022200920023D8
:10327000FFF760FC002303930493059306930793E1
:1032800008930993602303934C23264E03FB0566A2
:10329000304601F04DFF224603A9304601F0BEFF43
:1032A000B8F1000F34D02146304601F0A9FC3A466F
:1032B00021462846FFF77CFE0AB0BDE8F0814FF4B6
:1032C00000614FF090400A23CEE74BB180211348B4
:1032D00002230193022200920023FFF72BFCC9E78F
:1032E0004FF480514FF090400A23F2E753B14FF46E
:1032F00080710A4802230193022200920023FFF703
:1033000019FCB7E74FF400514FF090400A23F2E761
:103310002146304602F02EF8C9E700BF00040048FD
:1033200000140048900400207047704770477047B1
:103330007047000008B5064B1B68DA6812F0010FF1
:1033400000D108BD6FF001021A61FFF7EDFFF8E749
:103350009004002008B5064BDB6CDA6812F0010F10
:1033600000D108BD6FF001021A61FFF7DEFFF8E738
:103370009004002008B5074BD3F89830DA6812F0B3
:10338000010F00D108BD6FF001021A61FFF7CEFFF7
:10339000F8E700BF9004002008B5074BD3F8E430ED
:1033A000DA6812F0010F00D108BD6FF001021A6156
:1033B000FFF7BDFFF8E700BF9004002008B5074BFA
:1033C000D3F83031DA6812F0010F00D108BD6FF088
:1033D00001021A61FFF7ACFFF8E700BF900400207C
:1033E00010B52DED028BB0EE408AB5EEC00AF1EEBD
:1033F00010FA05D9032823D8DFE800F0052925278E
:10340000B7EE008AF6E7154C01F0C6FB134B9C4261
:1034100020D0134B1B68834200D0400007EE900A77
:10342000F8EE677A87EE887AF7EE007A77EE677AB9
:10343000FCEEE77A0023A362C4ED0B7A01236361FB
:10344000BDEC028B10BD074CDEE7074CDCE74FF00C
:103450008044D9E701F0B2FBDBE700BF002C01405C
:1034600000000020000400400008004010B50C4699
:10347000FFF796FD10B1214602F02CF810BD0000B8
:10348000002807DB00F01F02400901239340024A95
:1034900042F82030704700BF00E100E000280CDB5C
:1034A00000F01F024009012393402030034A42F8F4
:1034B0002030BFF34F8FBFF36F8F704700E100E004
:1034C00008B5012802D8044B185C08BD034B044A18
:1034D0008221044803F0FAF918060020F4A4000839
:1034E000F4A500080CA50008F8B5012806D8044684
:1034F000154B1B5C43B900252846F8BD134B144AF5
:10350000A521144803F0E2F9134E56F82030134A6F
:1035100002EBC012D55C013303F07F0346F8203084
:103520000F4B1F563846FFF7B9FF0E4B1A5D56F882
:1035300024309A4203D03846FFF7A2FFDCE7024B63
:1035400000221A55F7E700BF18060020F4A400086F
:10355000DCA500080CA500081C0600202806002099
:1035600008A600082406002070B582B08DF8071068
:1035700001281BD80546114B1B5CABB1104B5E57A5
:103580003046FFF78BFF4FF47A7301220DF10701EC
:1035900094240C4804FB050002F074FF04463046F6
:1035A000FFF76EFF022CE9D002B070BD064B074A50
:1035B00040F20F11064803F089F900BF14060020FD
:1035C00008A6000828070020F4A40008CCA50008DD
:1035D0000CA5000870B5B1F57A7F62D905460128BF
:1035E00066D800233C4A42F820303C4A13543C4AF7
:1035F00013543C4A52F820603B48942205FB02F2E7
:10360000841886506160A360E3602361A3610C228B
:103610006261E36123626362A362204603F000F803
:1036200000284CD10021204601F0FCFF002849D1A0
:103630000021204602F01BF8002846D1204601F068
:10364000D2FF002844D1294B5E5701221146304653
:1036500000F0CEFA304600F0DBFA204B5B5D03EB66
:10366000C513012222491944204603F0ABF8214C2E
:103670002068002302221946806804F0FDF92068C2
:10368000002302221946C06804F0F6F920680023DE
:1036900002221946406804F0EFF9174B01225A55EF
:1036A00070BD164B164A40F24B11164803F00EF946
:1036B000154B134A4FF4A671124803F007F9FFF7B0
:1036C000C7FAAFE7FFF7C4FAB2E7FFF7C1FAB5E709
:1036D000FFF7BEFAB7E700BF1C0600202406002053
:1036E000180600200CA600082807002008A60008DD
:1036F00028060020840100201406002078A5000878
:10370000BCA500080CA50008F4A4000830B599B0C9
:1037100004464422002107A804F03AFB22682E4BFD
:103720009A4205D022682D4B9A422AD019B030BD5A
:103730000123079307A800F0D9FCF8B9284DEB6CDA
:1037400043F00103EB64EB6C03F001030393039B71
:103750000723019303230093002302224FF4C06147
:103760004FF09040FFF7E6F92B6E43F480432B6651
:103770002B6E03F480430493049BD3E7FFF768FAAE
:10378000DCE7022307930023099307A800F0AEFCAF
:10379000F0B9134CE36C43F00103E364E36C03F012
:1037A00001030593059B0723019303230093002343
:1037B00002220C214FF09040FFF7BCF9A36D43F4B7
:1037C0000033A365A36D03F400330693069BADE7B6
:1037D000FFF73EFADDE700BF00380140004400403B
:1037E0000010024008B5024801F0B0FF08BD00BF5C
:1037F0002807002008B5024801F0A8FF08BD00BF57
:10380000BC07002002E00F2111624BB10268D369AE
:1038100013F0200F00D0516A13F00F03F5D0F2E738
:10382000704700000368174A934228D0A2F57442FB
:10383000934200D07047012210B51446124B01216B
:1038400099541248835C0B44594203F07F0301F002
:103850007F0158BF4B4283540D4B53F8223003B1C4
:1038600098470A4B1B5D03EBC41301220949194415
:103870009420094B00FB043002F0A4FF10BD00228D
:10388000DAE700BF003801401806002024060020B7
:103890000C060020280600202807002070477047EB
:1038A000704770477047704770470000F8B504468E
:1038B00003681F685D689A4B9E6806F01F0617F044
:1038C000020F10D015F0020F0DD0C36D13F0100FC2
:1038D00003D1C36D43F40063C3652046FFF7E2FFE5
:1038E000236802221A6017F0040F02D015F0040FAB
:1038F00005D117F0080F4DD015F0080F4AD0E36D31
:1039000013F0100F03D1E36D43F40073E3652368F4
:10391000DA6812F4406F37D1824A934227D01A46B0
:10392000934207D0092E25D840F22121F14011F011
:10393000010F1FD0DA6812F4005F25D11A6812F067
:10394000080F21D09A6812F0040F15D15A6822F09E
:103950000C025A60E36D23F48073E365E36D13F4A6
:10396000805F11D1E36D43F00103E3650CE04FF09C
:10397000A042D5E7D268DEE7E36D43F01003E365CC
:10398000236E43F0010323662046FFF731F82368D6
:103990000C221A6017F0200F02D015F0200F05D16D
:1039A00017F0400F5CD015F0400F59D0E36D13F0C5
:1039B000100F03D1E36D43F40053E3652368DA6C21
:1039C00012F4C07F12D10121DA6812F4406F0FD1D6
:1039D0000120544A93420DD01A4693420DD066B14D
:1039E000062E0AD0072E08D0D26807E00021EBE7A8
:1039F0000020EEE74FF0A042EFE7DA6851B312F093
:103A0000007F03D030B312F4005F23D1196811F0A6
:103A1000400F1FD012F4001F1CD19A6812F0080F3B
:103A200010D15A6822F060025A60E36D23F480538B
:103A3000E365E36D13F4807F0CD1E36D43F0010384
:103A4000E36507E0E36D43F01003E365236E43F0A5
:103A5000010323662046FFF721FF236860221A60D6
:103A600017F0800F02D015F0800F2FD117F4807F50
:103A700002D015F4807F34D117F4007F02D015F402
:103A8000007F3AD117F0100F19D015F0100F16D093
:103A9000E36B33B1002E3CD0214B9B6813F4604F95
:103AA0000AD0E36D43F48063E365236E43F00203C1
:103AB00023662046FFF7F8FE236810221A6017F4E9
:103AC000806F02D015F4806F2ED1F8BDE36D43F402
:103AD0008033E3652046FFF7E6FE236880221A6004
:103AE000C4E7E36D43F40033E3652046FFF7D8FEF7
:103AF00023684FF480721A60BEE7E36D43F48023BD
:103B0000E3652046FFF7CDFE23684FF400721A608C
:103B1000B8E72368DB6813F0010FCDD0C1E700BF21
:103B20000003005000010050E36D43F48043E3655F
:103B3000236E43F00803236623684FF480621A6003
:103B40002046FFF7ACFEC0E7002807DB00F01F02AD
:103B5000400901239340024A42F82030704700BFD9
:103B600000E100E0002808DB0901C9B200F1604073
:103B700000F5614080F80013704700F00F00090164
:103B8000C9B2014B1954704714ED00E000B500F0C4
:103B90000700C0F1070CBCF1040F28BF4FF0040C64
:103BA000031D062B0FD9C31E4FF0FF3E0EFA0CF07B
:103BB00021EA000199400EFA03FE22EA0E0241EAD0
:103BC00002005DF804FB0023EEE70000074AD3681B
:103BD00023F4E0631B041B0C000200F4E0600343C9
:103BE00043F0BF6343F40033D360704700ED00E05F
:103BF00010B50446054BD868C0F30220FFF7C6FF96
:103C000001462046FFF7AEFF10BD00BF00ED00E00B
:103C100008B5FFF799FF08BD0138B0F1807F0BD2DE
:103C20004FF0E0235861054AF02182F8231000206C
:103C3000986107221A6170470120704700ED00E08B
:103C4000034690F82520D2B2022A09D00422C2638A
:103C50000120012283F82520002283F824207047C8
:103C600001680A6822F00E020A60816C0A6822F478
:103C700080720A6001680A6822F001020A60426CE0
:103C800002F01F01006C01228A404260DA6C196D5B
:103C900051605A6D42B1116821F4807111609A6DC2
:103CA000D96D51600020D4E70020D2E708B590F824
:103CB0002530DBB2022B09D00423C363012380F833
:103CC0002530002280F82420184608BD02681368B9
:103CD00023F00E0313600268136823F001031360DE
:103CE000826C136823F480731360436C03F01F022B
:103CF000016C012393404B60C36C026D5A60436DAD
:103D000033B11A6822F480721A60836DC26D5A60F2
:103D1000012380F82530002380F82430836B13B111
:103D200098470020D1E70020CFE738B5036C196829
:103D300004682568436C03F01F0304229A400A427A
:103D400015D015F0040F12D0236813F0200F03D103
:103D5000236823F004032360436C03F01F02016C0B
:103D6000042393404B60036B03B1984738BD022294
:103D70009A400A421CD015F0020F19D0236813F0A4
:103D8000200F06D1236823F00A032360012380F863
:103D90002530436C03F01F02016C022393404B60FB
:103DA000002380F82430C36A002BDFD09847DDE77A
:103DB000082202FA03F30B42D8D015F0080FD5D031
:103DC000236823F00E032360436C03F01F03016C90
:103DD000012202FA03F34B60C26380F8252000231E
:103DE00080F82430436B002BC0D09847BEE700001A
:103DF000F0B583B0002362E085685E000324B44020
:103E000025EA0405CC68B4402C438460456825EA63
:103E10000C054C68C4F300149C402C4344605FE0E4
:103E2000DD08083550F8254003F0070C4FEA8C0CEC
:103E30004FF00F0E0EFA0CFE24EA0E0E0C6904FA77
:103E40000CF444EA0E0440F8254060E0052400E04C
:103E5000002404FA0EF42C430CF1020C554D45F8E5
:103E60002C40554CA568D44325EA02064F6817F448
:103E7000801F01D042EA05064F4DAE60ED6804EAAE
:103E800005064F6817F4001F01D042EA05064A4DA7
:103E9000EE606D6804EA05064F6817F4003F01D034
:103EA00042EA0506444D6E602D682C404E6816F4BB
:103EB000803F01D042EA05043F4A146001330A689A
:103EC00032FA03F474D04FF0010C0CFA03FC1CEA34
:103ED0000202F3D04C6804F00304013C012C8BD99E
:103EE0004C6804F00304032C0CD0C4685D004FF050
:103EF000030C0CFA05FC24EA0C0C8C68AC4044EA78
:103F00000C04C4604C6804F00304022C88D00468DC
:103F10004FEA430E4FF0030C0CFA0EFC24EA0C0C93
:103F20004C6804F0030404FA0EF444EA0C04046040
:103F30004C6814F4403FC1D0204C256E45F001057B
:103F40002566246E04F001040194019C4FEA930C51
:103F50000CF10205174C54F8255003F0030E4FEAFC
:103F60008E0E0F2404FA0EF425EA0405B0F1904FEA
:103F70003FF46EAF124CA04212D004F58064A04210
:103F800010D004F58064A0420ED004F58064A042F5
:103F90000CD004F58064A0423FF458AF062458E7E3
:103FA000012456E7022454E7032452E7042450E78F
:103FB00003B0F0BD000001400004014000100240C9
:103FC000000400480AB181617047816270470000B7
:103FD000002836D13E4B1B6803F4C063B3F5806FF5
:103FE00008D03B4AD2F8803023F48073C2F8803086
:103FF00000207047364AD2F8803023F48073C2F82C
:104000008030136823F4C06343F400731360314BB2
:104010001B68322202FB03F32F4AA2FB03239B0CF3
:10402000013300E0013B2A4A526912F4806F01D04B
:10403000002BF7D1264B5B6913F4806F44D100202D
:104040007047B0F5007F08D0214A136823F4C0639D
:1040500043F480631360002070471D4B1B6803F41A
:10406000C063B3F5806F08D0194AD2F8803043F4AA
:104070008073C2F8803000207047154AD2F8803033
:1040800043F48073C2F88030136823F4C06343F4B0
:10409000007313600F4B1B68322202FB03F30E4ABE
:1040A000A2FB03239B0C013300E0013B084A526949
:1040B00012F4806F01D0002BF7D1054B5B6913F42C
:1040C000806F03D1002070470320704703207047A2
:1040D000007000400000002083DE1B43024A93680A
:1040E00043F480439360704700700040F0B583B0A4
:1040F0000446036813F4002F69D0AE4B9B6D13F098
:10410000805F1ED1AB4B9A6D42F080529A659B6DD9
:1041100003F080530193019B0126A74A136843F4DF
:104120008073136002F0B8FB0546A34B1B6813F4C1
:10413000807F08D102F0B0FB401B0228F5D903258F
:1041400002E00026E9E7002545BB9A4BD3F8903002
:1041500013F4407318D0226C9A4212D0954AD2F8C8
:10416000903023F44073D2F8901041F48031C2F8BB
:104170009010D2F8901021F48031C2F89010C2F85B
:10418000903013F0010F10D145B98A4AD2F890301F
:1041900023F44073216C0B43C2F89030C6B1854ABA
:1041A000936D23F08053936512E002F075FB074690
:1041B000804BD3F8903013F0020FE5D102F06CFB86
:1041C000C01B41F288339842F2D90325DCE7002571
:1041D000236813F0010F08D0764AD2F8883023F014
:1041E000030361680B43C2F88830236813F0020FA1
:1041F00008D0704AD2F8883023F00C03A1680B4332
:10420000C2F88830236813F0040F08D0694AD2F846
:10421000883023F03003E1680B43C2F8883023680C
:1042200013F0080F08D0634AD2F8883023F0C00397
:1042300021690B43C2F88830236813F0200F08D09F
:104240005C4AD2F8883023F4406361690B43C2F8BA
:104250008830236813F0400F08D0564AD2F88830CF
:1042600023F44053A1690B43C2F88830236813F04C
:10427000800F08D04F4AD2F8883023F44043E169D8
:104280000B43C2F88830236813F4807F08D0494A72
:10429000D2F8883023F44033216A0B43C2F88830C7
:1042A000236813F4007F08D0424AD2F8883023F400
:1042B0004023616A0B43C2F88830236813F4806F8F
:1042C0000CD03C4AD2F8883023F44013A16A0B4347
:1042D000C2F88830A36AB3F5801F57D0236813F45F
:1042E000006F0CD0334AD2F8883023F44003E16ADF
:1042F0000B43C2F88830E36AB3F5800F4BD02368D4
:1043000013F4805F0CD02B4AD2F8883023F040732E
:10431000216B0B43C2F88830236BB3F1807F3FD011
:10432000236813F4005F0CD0224AD2F8883023F0BF
:104330004063616B0B43C2F88830636BB3F1006F6D
:1043400033D0236813F4804F0CD01A4AD2F8883047
:1043500023F04063A16B0B43C2F88830A36BB3F129
:10436000006F2BD0236813F4004F0CD0114AD2F801
:10437000883023F04053E16B0B43C2F88830E36B85
:10438000B3F1805F1FD0284603B0F0BDD36843F47B
:104390008013D360A2E7D36843F48013D360AEE701
:1043A000D36843F48013D360BAE7D36843F480132F
:1043B000D360C6E70010024000700040D36843F4A9
:1043C0008013D360CEE7D36843F48033D360DAE759
:1043D000124BDA6802F00302DB68C3F30313013304
:1043E000032A11D00E48B0FBF3F00C4BDB68C3F38B
:1043F000062303FB00F0094BDB68C3F34163013381
:104400005B00B0FBF3F070470648B0FBF3F0034BE2
:10441000DB68C3F3062303FB00F0ECE70010024067
:104420000024F40000127A00002800F04F8270B5DA
:1044300082B00446036813F0010F37D0A44A936892
:1044400003F00C03D26802F003020C2B23D0082BDC
:1044500023D06368B3F5803F4ED0B3F5A02F51D081
:104460009B4B1A6822F480321A601A6822F4802268
:104470001A606368002B52D002F00EFA0546944B86
:104480001B6813F4003F11D102F006FA401B6428A8
:10449000F5D9032023E2032AD9D18D4B1B6813F4ED
:1044A000003F03D06368002B00F01282236813F0F2
:1044B000020F5DD0864A936803F00C03D26802F0C5
:1044C00003020C2B3AD0042B3AD0E368002B75D0B2
:1044D0007F4A136843F48073136002F0DDF90546E8
:1044E0007B4B1B6813F4806F5FD102F0D5F9401B42
:1044F0000228F5D90320F2E1754A136843F48033AA
:104500001360B6E703F18043A3F53C331A6842F425
:1045100080221A601A6842F480321A60A9E702F019
:10452000BBF905466A4B1B6813F4003FBED002F08E
:10453000B3F9401B6428F5D90320D0E1022AC2D187
:10454000634B1B6813F4806F03D0E368002B00F00B
:10455000C1815F4A536823F0FE43216943EA016346
:1045600053605C4B186802F053F9002840F0B481A6
:10457000236813F0080F4CD063699BB3544AD2F8F8
:10458000943043F00103C2F8943002F085F90546F7
:104590004F4BD3F8943013F0020F3AD102F07CF96C
:1045A000401B0228F4D9032099E1494A536823F0BB
:1045B000FE43216943EA01635360D9E7444A136823
:1045C00023F48073136002F067F90546404B1B68C3
:1045D00013F4806FCCD002F05FF9401B0228F5D9AC
:1045E00003207CE13A4AD2F8943023F00103C2F868
:1045F000943002F051F90546354BD3F8943013F05E
:10460000020F06D002F048F9401B0228F4D903201B
:1046100065E1236813F0040F00F081802C4B9B6D43
:1046200013F0805F36D12A4B9A6D42F080529A6522
:104630009B6D03F080530193019B0125264B1B6862
:1046400013F4807F28D0A368012B39D0052B45D0E7
:104650001F4BD3F8902022F00102C3F89020D3F82A
:10466000902022F00402C3F89020A368002B43D0CE
:1046700002F012F90646164BD3F8903013F0020FF1
:104680004CD102F009F9801B41F288339842F2D9EB
:10469000032024E10025D1E70F4A136843F4807317
:1046A000136002F0F9F806460B4B1B6813F4807F89
:1046B000C9D102F0F1F8801B0228F5D903200EE1E0
:1046C000034AD2F8903043F00103C2F89030CCE7AF
:1046D000001002400800002000700040884BD3F812
:1046E000902042F00402C3F89020D3F8902042F0CA
:1046F0000102C3F89020B8E702F0CEF80646804BDE
:10470000D3F8903013F0020F08D002F0C5F8801BE8
:1047100041F288339842F2D90320E0E0E5B92368FA
:1047200013F0200F35D0A369E3B1754AD2F8983061
:1047300043F00103C2F8983002F0AEF80546704B22
:10474000D3F8983013F0020F23D102F0A5F8401BE4
:104750000228F4D90320C2E0694A936D23F0805304
:104760009365DCE7664AD2F8983023F00103C2F87B
:10477000983002F091F80546614BD3F8983013F069
:10478000020F06D002F088F8401B0228F4D903205B
:10479000A5E0E369002B00F0A180594A926802F07D
:1047A0000C020C2A64D0022B13D0554A136823F054
:1047B0008073136002F070F80446514B1B6813F0CD
:1047C000007F4ED002F068F8001B0228F5D90320C4
:1047D00085E04B4A136823F08073136002F05CF8A5
:1047E0000546474B1B6813F0007F06D002F054F8D3
:1047F000401B0228F5D9032071E0414AD3684149A2
:104800001940236A606A013843EA0013A06A43EA48
:104810000023206B4008013843EA4053606B400896
:10482000013843EA4063E06A43EAC0631943D16058
:10483000136843F080731360D36843F08073D360D0
:1048400002F02AF804462E4B1B6813F0007F06D1B5
:1048500002F022F8001B0228F5D903203FE00020D7
:104860003DE0274AD168284B0B40D360002036E05A
:10487000012B36D0224BDB6803F00301226A914200
:1048800031D103F0F002616A0139B2EB011F2CD182
:1048900003F4FE42A16AB2EB012F28D103F0784263
:1048A000E16AB2EBC16F24D103F4C001226B52085C
:1048B000013AB1EB425F1ED103F0C063626B520854
:1048C000013AB3EB426F18D1002008E00120704795
:1048D000012004E0012002E0012000E0002002B0FD
:1048E00070BD0120FBE70120F9E70120F7E7012077
:1048F000F5E70120F3E70120F1E70120EFE700BF32
:10490000001002400C809F01FCFFEEFE1E4B9B68D6
:1049100003F00C03042B33D01B4B9B6803F00C03F8
:10492000082B2FD0184B9B6803F00C030C2B01D0E5
:1049300000207047144BDA6802F00302DB68C3F30F
:1049400003130133032A11D01048B0FBF3F00E4BD0
:10495000DB68C3F3062303FB00F00B4BDB68C3F3F8
:10496000416301335B00B0FBF3F070470848B0FBD4
:10497000F3F0054BDB68C3F3062303FB00F0ECE721
:104980000248704702487047001002400024F400BB
:1049900000127A00002800F0E680F8B50C460546C3
:1049A000744B1B6803F00F038B420BD2714A1368E0
:1049B00023F00F030B431360136803F00F038B42C4
:1049C00040F0D3802E6816F001065FD06B68032B91
:1049D0002FD0022B4DD0684B1B6813F4806F00F072
:1049E000C680FFF793FF654B98424DD9624A9368A2
:1049F00023F0F00343F08003936080265E4A9368BF
:104A000023F0030369680B43936001F045FF0746F9
:104A1000594B9B6803F00C036A68B3EB820F35D0E7
:104A200001F03AFFC01B41F288339842F0D90320CD
:104A300078E0514B1B6813F0007F01D1012071E039
:104A4000FFF7C6FC4D4B98421AD94B4B9B6813F0AD
:104A5000F00F05D02E6816F00206CFD0AB688BB9E8
:104A6000454A936823F0F00343F080039360802667
:104A7000C4E7414B1B6813F4003FB2D1012051E061
:104A80000026BBE70026B9E70026B7E72B6813F03E
:104A9000020F48D013F0040F04D0374A936843F450
:104AA000E06393602B6813F0080F06D0324A9368D6
:104AB00023F47C5343F4E06393602F4A936823F01C
:104AC000F003A9680B4393602A4B1B6803F00F03A4
:104AD000A34230D82B6813F0040F06D0264A9368FF
:104AE00023F4E063E9680B4393602B6813F0080F2D
:104AF00007D0214A936823F46053296943EAC1032C
:104B00009360FFF703FF1C4B9B68C3F303131C4A1E
:104B1000D35C03F01F03D8401A4B18601A4B186877
:104B200001F076FEF8BD802ECED1134A936823F0B3
:104B3000F0039360C8E70F4A136823F00F03234381
:104B4000136001F0A9FE06460A4B1B6803F00F0331
:104B5000A342BFD001F0A0FE801B41F288339842EF
:104B6000F2D90320DEE7012070470120DAE70120B7
:104B7000D8E700BF002002400010024000B4C40487
:104B800090A500080000002008000020014B1868D4
:104B9000704700BF0000002008B5FFF7F7FF054B86
:104BA0009B68C3F30223044AD35C03F01F03D8407D
:104BB00008BD00BF0010024088A5000808B5FFF737
:104BC000E5FF054B9B68C3F3C223044AD35C03F0A3
:104BD0001F03D84008BD00BF0010024088A5000890
:104BE00001F00F014FF0040C0CFA01FC036A23EAF8
:104BF0000C030362036A8A40134303627047000098
:104C000010B504460846002933D194F84430DBB28D
:104C1000013B18BF0123002B62D1002842D102239F
:104C200084F84430042201462068FFF7D9FF226847
:104C3000536C43F40043536423682C4A934241D09D
:104C4000B3F1804F3ED0A2F5943293423AD002F5B0
:104C50008062934236D002F59632934232D002F50A
:104C6000406293422ED01A6842F001021A6000207E
:104C700037E0042908D008290DD094F84730DBB27A
:104C8000013B18BF0123C6E794F84530DBB2013B76
:104C900018BF0123BFE794F84630DBB2013B18BFD1
:104CA0000123B8E7042805D0082807D0022384F898
:104CB0004730B7E7022384F84530B3E7022384F88E
:104CC0004630AFE799680A4A0A40062A0AD0B2F588
:104CD000803F09D01A6842F001021A60002000E00B
:104CE000012010BD0020FCE70020FAE7002C014065
:104CF0000700010030B4026A036A23F00103036273
:104D00004468836923F4803323F073030D681D43E3
:104D100022F002028B6813431C4A90420FD002F526
:104D2000006290420BD002F54062904207D002F53B
:104D30008062904203D002F58062904205D123F058
:104D40000803CA681A4322F00403104A90420FD0A5
:104D500002F5006290420BD002F54062904207D00B
:104D600002F58062904203D002F58062904205D144
:104D700024F440744A6922438C6914434460856179
:104D80004A684263036230BC704700BF002C014098
:104D900030B4036A026A22F4807202624468C26913
:104DA00022F4803222F073020D68154323F400735D
:104DB0008A6843EA0223184A904203D002F500624F
:104DC000904206D123F40063CA6843EA022323F425
:104DD0008063114A90420FD002F5006290420BD0DE
:104DE00002F54062904207D002F58062904203D003
:104DF00002F58062904207D124F440524C6942EAA5
:104E000004128C6942EA04144460C5614A68C263B2
:104E1000036230BC704700BF002C014030B4036A0D
:104E2000026A22F4805202624468C26922F08072EF
:104E300022F4E6420D6842EA052223F400538D680D
:104E400043EA0533174DA84203D005F50065A84293
:104E500006D123F40043CD6843EA053323F48043AD
:104E6000104DA8420FD005F50065A8420BD005F5FE
:104E70004065A84207D005F58065A84203D005F536
:104E80008065A84207D124F4404C4C694CEA841C4C
:104E90008C694CEA84144460C2614A68026403620B
:104EA00030BC7047002C014030B4036A026A22F41F
:104EB000803202624468026D22F4803222F0700275
:104EC0000D68154323F400338A6843EA02430F4A0E
:104ED00090420FD002F5006290420BD002F5406282
:104EE000904207D002F58062904203D002F58062C2
:104EF000904204D124F480344A6944EA0224446094
:104F000005654A688264036230BC7047002C01402A
:104F100030B4036A026A22F4801202624468026DAD
:104F200022F0807222F4E0420D6842EA052223F466
:104F300000138D6843EA05530F4DA8420FD005F5C5
:104F40000065A8420BD005F54065A84207D005F5DD
:104F50008065A84203D005F58065A84204D124F4F9
:104F600080244D6944EA8524446002654A68C2642D
:104F7000036230BC704700BF002C01407047000046
:104F800090F83D30DBB2012B32D1022380F83D3066
:104F90000268D36843F00103D3600368174A934261
:104FA00018D0B3F1804F15D0A2F59432934211D0AE
:104FB00002F5806293420DD002F59632934209D0F9
:104FC00002F54062934205D01A6842F001021A606D
:104FD0000020704799680A4A0A40062A0AD0B2F5AA
:104FE000803F09D01A6842F001021A600020704721
:104FF000012070470020704700207047002C0140BE
:1050000007000100704700000368304A90420ED04C
:10501000B0F1804F0BD0A2F59432904207D002F548
:105020008062904203D002F59632904203D123F081
:1050300070034A681343254A90421AD0B0F1804F5A
:1050400017D0A2F59432904213D002F580629042BC
:105050000FD002F5963290420BD002F5406290429A
:1050600007D002F58062904203D002F58062904240
:1050700003D123F44073CA68134323F080034A69C1
:10508000134303608B68C3620B6883620F4B9842C3
:105090000FD003F5006398420BD003F540639842AC
:1050A00007D003F58063984203D003F580639842EC
:1050B00001D10B69036301234361036913F0010FFD
:1050C00003D0036923F0010303617047002C014002
:1050D00060B310B5044690F83D3013B3022384F852
:1050E0003D30214651F8040BFFF78EFF012384F871
:1050F000483084F83E3084F83F3084F8403084F8FB
:10510000413084F8423084F8433084F8443084F8E5
:10511000453084F8463084F8473084F83D3000202C
:1051200010BD80F83C30FFF729FFD7E7012070471A
:1051300060B310B5044690F83D3013B3022384F8F1
:105140003D30214651F8040BFFF75EFF012384F840
:10515000483084F83E3084F83F3084F8403084F89A
:10516000413084F8423084F8433084F8443084F885
:10517000453084F8463084F8473084F83D300020CC
:1051800010BD80F83C30FFF73DFFD7E701207047A6
:1051900030B4036A026A22F0100202624468826933
:1051A00022F0807222F4E6420D6842EA052223F0E2
:1051B00020038D6843EA0513174DA84203D005F577
:1051C0000065A84206D123F08003CD6843EA0513A9
:1051D00023F04003104DA8420FD005F50065A8420A
:1051E0000BD005F54065A84207D005F58065A842BB
:1051F00003D005F58065A84207D124F4406C4C69C2
:105200004CEA840C8C694CEA8404446082614A68EC
:105210008263036230BC7047002C014038B590F8BF
:105220003C30012B00F0958004460D46012380F8A8
:105230003C30142A00F28880DFE802F00B86868674
:105240001F86868634868686488686865D8686861E
:1052500071000068FFF74EFD2268936943F0080370
:1052600093612268936923F0040393612268936930
:1052700029690B439361002067E00068FFF788FF0E
:105280002268936943F4006393612268936923F46D
:105290008063936122689369296943EA01239361DA
:1052A000002052E00068FFF773FD2268D36943F0E5
:1052B0000803D3612268D36923F00403D361226811
:1052C000D36929690B43D36100203EE00068FFF7F2
:1052D000A5FD2268D36943F40063D3612268D369D2
:1052E00023F48063D3612268D369296943EA0123E7
:1052F000D361002029E00068FFF7D6FD2268136D16
:1053000043F0080313652268136D23F0040313654B
:105310002268136D29690B431365002015E00068AE
:10532000FFF7F6FD2268136D43F4006313652268EE
:10533000136D23F4806313652268136D296943EAB2
:1053400001231365002000E00120002384F83C3095
:1053500038BD0220FCE701F01F014FF0010C0CFAF0
:1053600001FC036A23EA0C030362036A8A401343C5
:105370000362704710B5044610293CD8DFE801F0FD
:10538000093B3B3B1F3B3B3B263B3B3B2D3B3B3BDE
:10539000340090F83E30DBB2013B18BF0123002BF4
:1053A00040F08E80102979D8DFE801F02C787878E9
:1053B000687878786C78787870787878740090F875
:1053C0003F30DBB2013B18BF0123E8E790F84030E3
:1053D000DBB2013B18BF0123E1E790F84130DBB2BB
:1053E000013B18BF0123DAE790F84230DBB2013B02
:1053F00018BF0123D3E790F84330DBB2013B18BF5D
:105400000123CCE7022384F83E3001222068FFF715
:10541000A2FF23682D4A93420FD002F50062934207
:105420000BD002F54062934207D002F580629342AE
:1054300003D002F58062934203D15A6C42F40042D9
:105440005A642368214A93422CD0B3F1804F29D06B
:10545000A2F59432934225D002F58062934221D086
:1054600002F5963293421DD002F54062934219D064
:105470001A6842F001021A60002022E0022384F838
:105480003F30C2E7022384F84030BEE7022384F8AD
:105490004130BAE7022384F84230B6E7022384F8A9
:1054A0004330B2E799680A4A0A40062A0AD0B2F5A0
:1054B000803F09D01A6842F001021A60002000E023
:1054C000012010BD0020FCE70020FAE7002C01407D
:1054D0000700010038B504460D4600220068FFF7BA
:1054E0003AFF23682A4A93420FD002F500629342A2
:1054F0000BD002F54062934207D002F580629342DE
:1055000003D002F5806293420DD1196A41F2111263
:10551000114208D1196A44F24442114203D15A6C33
:1055200022F400425A642368196A41F211121142AE
:1055300008D1196A44F24442114203D11A6822F098
:1055400001021A60102D1FD8DFE805F0091E1E1E8B
:105550000E1E1E1E121E1E1E161E1E1E1A000123C9
:1055600084F83E30002038BD012384F83F30F9E74D
:10557000012384F84030F5E7012384F84130F1E756
:10558000012384F84230EDE7012384F84330E9E752
:10559000002C0140436E2BB90123A0F86A30A0F81B
:1055A0006830704730B403689A68C2F34262996801
:1055B000490F094D6B5CDB00084C615C93FBF1F318
:1055C000A0F86A30AB5CDB00A25C93FBF2F3A0F8BE
:1055D000683030BC704700BF1CA6000814A6000845
:1055E00070477047704790F88430012B18D0012322
:1055F00080F884302423C0F8883003681A6819685A
:1056000021F00101196022F0005200234366016875
:105610000A602022C0F8882080F88430184670473D
:105620000220704738B590F88430012B1DD0044615
:10563000012380F884302423C0F8883003681D6873
:105640001A6822F001021A600268936823F060432E
:1056500019439160FFF79EFF23681D602023C4F863
:105660008830002084F8840038BD0220FCE738B57B
:1056700090F88430012B1DD00446012380F884303B
:105680002423C0F8883003681D681A6822F00102DC
:105690001A600268936823F0606319439160FFF712
:1056A00079FF23681D602023C4F88830002084F827
:1056B000840038BD0220FCE7026852E8003F23F472
:1056C000907342E800310029F6D1026802F1080324
:1056D00053E8003F23F0805323F00103083242E8EF
:1056E00000310029F1D1C36E012B06D02023C0F870
:1056F0008C300023C36643677047026852E8003F5E
:1057000023F0100342E800310029F6D1EEE770479C
:1057100008B5026852E8003F23F0400342E8003138
:105720000029F6D12023C0F8883000238367FFF7D3
:10573000EEFF08BD08B5806A0023A0F85E30A0F82F
:105740005630FEF75FF808BD7047000070B504469C
:105750000268D3691068916840F60F0C13EA0C0FC9
:105760000DD113F0200F10D010F0200F02D111F046
:10577000805F0AD0636F93B3204698472FE0B44D03
:105780000D402DD1B34E30422AD1E56E012D00F0EF
:10579000C08013F4801F03D011F4800F40F05E81AD
:1057A00013F0800F07D010F0800F40F05E8111F4ED
:1057B000000F40F05A8113F0400F03D010F0400F5B
:1057C00040F05A8113F4000F03D010F0804F40F0E6
:1057D000578113F0807F02D00028C0F2558170BD40
:1057E00013F0010F09D010F4807F06D00126166255
:1057F000D4F890203243C4F8902013F0020F0BD05D
:1058000011F0010F08D0226802261662D4F8902009
:1058100042F00402C4F8902013F0040F0BD011F0F2
:10582000010F08D0226804261662D4F8902042F0B6
:105830000202C4F8902013F0080F0BD010F0200FD4
:1058400000D13DB1226808251562D4F890202A4382
:10585000C4F8902013F4006F0CD010F0806F09D0C2
:1058600022684FF400651562D4F8902042F02002BF
:10587000C4F89020D4F89020002AB0D013F0200F64
:1058800009D010F0200F02D111F0805F03D0636FB8
:105890000BB120469847D4F8902023689B6813F0FA
:1058A000400F02D112F0280F2CD02046FFF704FF42
:1058B00023689B6813F0400F20D0226802F1080390
:1058C00053E8003F23F04003083242E8003100294A
:1058D000F3D1D4F880306BB15F4A9A63D4F880007A
:1058E000FEF7E4F900283FF47AAFD4F88000836B28
:1058F000984774E72046FDF785FF70E72046FDF7DF
:1059000081FF6CE72046FDF77DFF0023C4F890304F
:1059100065E713F0100F3FF43CAF10F0100F3FF4A9
:1059200038AF1023136223689B6813F0400F53D0E5
:10593000D4F8802013685B689BB2002B3FF44FAF14
:10594000B4F85C1099427FF64AAFA4F85E30136851
:105950001B6813F0200F32D1226852E8003F23F475
:10596000807342E800310029F6D1226802F1080371
:1059700053E8003F23F00103083242E800310029D8
:10598000F3D1226802F1080353E8003F23F04003FB
:10599000083242E800310029F3D12023C4F88C30CA
:1059A0000023E366226852E8003F23F0100342E838
:1059B00000310029F6D1D4F88000FEF741F9022326
:1059C0002367B4F85C10B4F85E309BB2C91A89B290
:1059D0002046FFF7B9FE02E7B4F85C10B4F85E3079
:1059E0009BB2C91A89B2B4F85E309BB2002B3FF467
:1059F000F6AE00293FF4F3AE226852E8003F23F4EC
:105A0000907342E800300028F6D1226802F10803C2
:105A100053E8003F23F0805323F00103083242E8AB
:105A200000300028F1D12023C4F88C300023E36635
:105A30006367226852E8003F23F0100342E8003019
:105A40000028F6D1022323672046FFF77DFEC6E635
:105A50000100001020010004355700084FF48013A6
:105A600013622046FFF7BCFDB9E6A36F002B3FF49D
:105A7000B6AE20469847B2E62046FFF749FEAEE6AE
:105A80002046FFF7AFFDAAE62046FFF7AAFDA6E6EF
:105A900008B5B0F86030D0F88C20222A05D0026812
:105AA000936943F00803936108BD0268516ADBB251
:105AB000826D0B401370836D01338365B0F85E30E7
:105AC0009BB2013B9BB2A0F85E30B0F85E309BB257
:105AD000002BE9D1026852E8003F23F4907342E8BA
:105AE00000310029F6D1026802F1080353E8003FB3
:105AF00023F00103083242E800310029F3D12023CA
:105B0000C0F88C300023436703670368164A93424A
:105B10000CD05B6813F4000F08D0026852E8003F15
:105B200023F0806342E800310029F6D1C36E012BD7
:105B300016D10023C366026852E8003F23F0100329
:105B400042E800310029F6D10368DA6912F0100F3B
:105B500001D010221A62B0F85C10FFF7F5FDA3E740
:105B6000FDF760FEA0E700BF0080004008B5B0F878
:105B70006020D0F88C30222B05D00268936943F066
:105B80000803936108BD03685B6A816D13400B8055
:105B9000836D02338365B0F85E309BB2013B9BB2EC
:105BA000A0F85E30B0F85E309BB2002BEAD10268FC
:105BB00052E8003F23F4907342E800310029F6D107
:105BC000026802F1080353E8003F23F001030832A2
:105BD00042E800310029F3D12023C0F88C300023A3
:105BE000436703670368164A93420CD05B6813F45B
:105BF000000F08D0026852E8003F23F0806342E8BB
:105C000000310029F6D1C36E012B16D10023C366E3
:105C1000026852E8003F23F0100342E800310029F7
:105C2000F6D10368DA6912F0100F01D010221A625F
:105C3000B0F85C10FFF788FDA4E7FDF7F3FDA1E7DE
:105C4000008000402DE9F843B0F860600368DD692A
:105C5000D3F80090D3F80880D0F88C20222A05D001
:105C60009A6942F008029A61BDE8F8830446B0F8E8
:105C7000687008E0D4F89030002B4CD1B4F85E3056
:105C80009BB2002B4ED0002F00F09A8015F0200F11
:105C900000F096802368596AF3B2A26D0B4013702E
:105CA000A36D0133A365B4F85E309BB2013B9BB298
:105CB000A4F85E302368DD6915F0070FDED015F01B
:105CC000010F09D019F4807F06D001221A62D4F89E
:105CD00090301343C4F8903015F0020F0BD018F039
:105CE000010F08D0236802221A62D4F8903043F0E2
:105CF0000403C4F8903015F0040FBBD018F0010F66
:105D0000B8D0236804221A62D4F8903043F002031A
:105D1000C4F89030AEE72046FDF774FD0023C4F8C8
:105D20009030ABE7226852E8003F23F4807342E8EA
:105D300000310029F6D1226802F1080353E8003F40
:105D400023F0805323F00103083242E80031002998
:105D5000F1D12023C4F88C300023636723672368C4
:105D6000294A934203D05B6813F4000F06D1E36E17
:105D7000012B0DD02046FDF755FD84E7226852E83F
:105D8000003F23F0806342E800310029F6D1EEE7BE
:105D90000023E366226852E8003F23F0100342E844
:105DA00000310029F6D12368DA6912F0100F01D012
:105DB00010221A62B4F85C102046FFF7C5FC62E7B7
:105DC000B4F85E309BB2002B3FF44EAFB4F86820BD
:105DD0009A427FF649AF226802F1080353E8003F78
:105DE00023F08053083242E800310029F3D1074BF9
:105DF0006367226852E8003F43F0200342E8003125
:105E00000029F6D130E700BF00800040915A000819
:105E10002DE9F843B0F860600368DD69D3F80090BD
:105E2000D3F80880D0F88C20222A05D09A6942F055
:105E300008029A61BDE8F8830446B0F8687008E08B
:105E4000D4F89030002B4BD1B4F85E309BB2002BCD
:105E50004DD0002F00F0998015F0200F00F09580B4
:105E600023685B6AA26D33401380A36D0233A36580
:105E7000B4F85E309BB2013B9BB2A4F85E3023685D
:105E8000DD6915F0070FDFD015F0010F09D019F407
:105E9000807F06D001221A62D4F890301343C4F8F0
:105EA000903015F0020F0BD018F0010F08D02368C6
:105EB00002221A62D4F8903043F00403C4F8903000
:105EC00015F0040FBCD018F0010FB9D023680422DC
:105ED0001A62D4F8903043F00203C4F89030AFE770
:105EE0002046FDF78FFC0023C4F89030ACE7226811
:105EF00052E8003F23F4807342E800310029F6D1D4
:105F0000226802F1080353E8003F23F0805323F096
:105F10000103083242E800310029F1D12023C4F8FE
:105F20008C300023636723672368294A934203D098
:105F30005B6813F4000F06D1E36E012B0DD02046F1
:105F4000FDF770FC85E7226852E8003F23F080638C
:105F500042E800310029F6D1EEE70023E36622682B
:105F600052E8003F23F0100342E800310029F6D147
:105F70002368DA6912F0100F01D010221A62B4F807
:105F80005C102046FFF7E0FB63E7B4F85E309BB29D
:105F9000002B3FF44FAFB4F868209A427FF64AAF27
:105FA000226802F1080353E8003F23F080530832CF
:105FB00042E800310029F3D1064B6367226852E8BA
:105FC000003F43F0200342E800310029F6D131E7D9
:105FD000008000406D5B000870B50446836802696C
:105FE000134342691343C2691343016808688B4A2B
:105FF00002401A430A602268536823F44053E16860
:106000000B435360A1692268854B9A4201D0236AF1
:106010001943936823F06E4323F430630B4393607A
:106020002268D36A23F00F03616A0B43D3622368AB
:106030007C4A934223D07C4A934234D07B4A934299
:106040004AD07B4A934259D0754A934268D0102275
:1060500073498B4200F09580E069B0F5004F00F085
:10606000D280082A00F24F81DFE812F012013401D9
:1060700010014D0137014D014D014D013A0102F56D
:106080005842D2F8882002F00302032A09D8DFE838
:1060900002F002045C060122DAE70422D8E70822B3
:1060A000D6E71022D4E702F5E632D2F8882002F0D3
:1060B0000C020C2A0ED8DFE802F0070D0D0D090DB9
:1060C0000D0D4A0D0D0D0B000022C1E70422BFE7A4
:1060D0000822BDE71022BBE702F5E432D2F888209F
:1060E00002F03002202A34D004D8A2B3102A34D1CE
:1060F0000422ADE7302A32D10822A9E702F5E232C4
:10610000D2F8882002F0C002802A2AD004D852B3E4
:10611000402A2AD104229BE7C02A28D1082297E7E7
:1061200002F5C832D2F8882002F44062B2F5006F5E
:106130001FD005D8FAB1B2F5806F1ED1042287E7CF
:10614000B2F5406F1BD1082282E7022280E70222CB
:106150007EE702227CE700227AE7102278E710220D
:1061600076E7022274E7002272E7102270E710221D
:106170006EE702226CE700226AE7102268E710222D
:1061800066E7082A00F2AF80DFE802F008AD3BAD19
:1061900038ADADAD05004FF4004004E0FEF7FCFC67
:1061A000002800F0A280626A224B33F81220B0FB74
:1061B000F2F3656805EB4501994200F29880B3EB74
:1061C000053F00F29680002633463146FBF74EFC31
:1061D000090241EA106100026B08C0182A463346E2
:1061E00041F10001FBF742FCA0F54072124B9A42CC
